:100000000C9463000C948B000C948B000C948B006C
:100010000C948B000C948B000C948B000C94781532
:100020000C948B000C948B000C948B000C944B174D
:100030000C948B000C948B000C948B000C948B0014
:100040000C942E150C948B000C94FA150C94D4156A
:100050000C948B000C948B000C948B000C948B00F4
:100060000C942C160C948B00020000000024002736
:10007000002A0000000000250028002B00000000DE
:1000800000230026002900040404040404040402DC
:100090000202020202030303030303010204081025
:1000A00020408001020408102001020408102000F2
:1000B0000000080002010000030407000000000027
:1000C00000000000071811241FBECFEFD8E0DEBFEC
:1000D000CDBF13E0A0E0B1E0EEE0F2E402C0059095
:1000E0000D92AC31B107D9F726E0ACE1B3E001C025
:1000F0001D92A537B207E1F710E0C3E6D0E004C0D7
:100100002197FE010E94F71EC236D107C9F70E944F
:100110001C190C9405210C940000862FE0910E040C
:10012000F0910F04309711F0BA0109940895862FC9
:10013000E0910C04F0910D04309711F0BA0109948C
:100140000895862FE0910A04F0910B04309711F086
:10015000BA0109940895862FE0910804F0910904EA
:10016000309711F0BA0109940895862FE0910604A2
:10017000F0910704309711F0BA0109940895862F81
:10018000E0910404F0910504309711F0BA0109944C
:1001900008950895862F642FE0911004F0911104C2
:1001A000309711F0A90109940895E0911204F0919B
:1001B0001304309709F009940895A091DA05B091DD
:1001C000DB05ED91FC9111970190F081E02D682FF6
:1001D000CD010994982F2091BE0481E0213208F0CE
:1001E00043C080919A048111FCCF8091BD0432E01C
:1001F00030939A04909399049FEF909398041092EF
:10020000970420939604ADE9B4E0E6E7F4E090E0CB
:10021000291331C01092750490917504880F892BB1
:100220008093750480917404813049F510927404B0
:10023000809175048093BB008091BC0083FDF8CF52
:1002400085EC8093BC0080919A048230E1F3809128
:1002500098048F3FB1F0809198048032A1F0809192
:100260009804803391F084E010929C041092BE04B4
:1002700010929B0408953D9131939F5FC9CF85EE05
:10028000E0CF80E0F1CF82E0EFCF83E0EDCF1F93AE
:10029000CF93DF93182FEB018091A1059091A205D8
:1002A0006817790760F480919F059091A005C80FA9
:1002B000D91F188380E0DF91CF911F910895E091BD
:1002C000CE05F091CF05309711F481E0F4CF81E0B5
:1002D00080939E058091BA059091BB050995809108
:1002E000A1059091A205C817D90778F7DCCFCF9365
:1002F000DF93EC01FB0130E020E0C901880F991F7A
:100300008C179D0778F44081DB014D93BD01119757
:100310009181979599279795942B9C932F5F3F4FA9
:100320003296EBCFC901DF91CF910895833081F0F0
:1003300028F4813099F08230A9F008958730A9F02F
:100340008830C9F08430B1F4809180008F7D03C083
:10035000809180008F7780938000089584B58F7797
:1003600084BD089584B58F7DFBCF8091B0008F77D9
:100370008093B00008958091B0008F7DF9CFCF9326
:10038000DF93282F30E0F901E155FF4F8491F90107
:10039000E556FF4FD491F901E957FF4FC491CC23A3
:1003A000A1F081110E949601EC2FF0E0EE0FFF1FEB
:1003B000E358FF4FA591B491EC91ED2381E090E0DB
:1003C00009F480E0DF91CF91089580E090E0FACFCA
:1003D0001F93CF93DF93282F30E0F901E155FF4FB2
:1003E0008491F901E556FF4FD491F901E957FF4F88
:1003F000C491CC23A9F0162F81110E949601EC2FF5
:10040000F0E0EE0FFF1FED58FF4FA591B4918FB7AD
:10041000F894EC91111108C0D095DE23DC938FBFC6
:10042000DF91CF911F910895DE2BF8CFCF93DF930B
:1004300090E0FC01E556FF4F249189579F4FFC0146
:1004400084918823C9F090E0880F991FFC01E75937
:10045000FF4FA591B491FC01ED58FF4FC591D49188
:1004600061110DC09FB7F8948C91209582238C93D5
:100470008881282328839FBFDF91CF910895623020
:1004800051F49FB7F8943C91822F809583238C93ED
:10049000E8812E2BEFCF8FB7F894EC912E2B2C9375
:1004A0008FBFEACF8E3008F08E50877080648093C3
:1004B0007C0080917A00806480937A0080917A0039
:1004C00086FDFCCF809178009091790008953FB728
:1004D000F8948091700490917104A0917204B0918D
:1004E000730426B5A89B05C02F3F19F00196A11DE6
:1004F000B11D3FBFBA2FA92F982F8827BC01CD016E
:10050000620F711D811D911D42E0660F771F881FCC
:10051000991F4A95D1F708958F929F92AF92BF92FB
:10052000CF92DF92EF92FF926B017C010E946702F3
:100530004B015C01C114D104E104F104B9F00E9443
:100540006702681979098A099B09683E7340810529
:10055000910580F321E0C21AD108E108F10888EE84
:10056000880E83E0981EA11CB11CE4CFFF90EF9091
:10057000DF90CF90BF90AF909F908F900895909113
:10058000000189130BC0E8E6F0E0E4919FEF90933F
:100590000001E13049F028F0E23061F060E00C94B5
:1005A000E80110926E00FACF90916F009D7F9093BA
:1005B0006F00F4CF909170009D7F9093700091E058
:1005C0009093B0009091B100987F94609093B100A7
:1005D0001092B300E3CFAF92BF92CF92DF92EF922F
:1005E000FF920F931F93CF93DF936C017B018B01DD
:1005F000040F151FEB015E01AE18BF08C017D1072D
:1006000059F06991D601ED91FC910190F081E02DB6
:10061000C6010995892B79F7C501DF91CF911F910B
:100620000F91FF90EF90DF90CF90BF90AF90089523
:10063000FC01538D448D252F30E0842F90E0821BE8
:10064000930B541710F0CF96089501970895FC016D
:10065000918D828D981761F0A28DAE0FBF2FB11DC5
:100660005D968C91928D9F5F9F73928F90E008951D
:100670008FEF9FEF0895FC01918D828D981731F0D7
:10068000828DE80FF11D858D90E008958FEF9FEF2B
:100690000895FC01918D228D892F90E0805C9F4F01
:1006A000821B91098F73992708958FEB94E00E9424
:1006B000490321E0892B09F420E0822F089580E08E
:1006C00090E0892B29F00E94550381110C940000C1
:1006D0000895FC01A48DA80FB92FB11DA35ABF4FD7
:1006E0002C91848D90E001968F739927848FA68931
:1006F000B7892C93A089B1898C91837080648C9385
:10070000938D848D981306C00288F389E02D808133
:100710008F7D80830895EF92FF920F931F93CF9365
:10072000DF93EC0181E0888F9B8D8C8D98131AC02C
:10073000E889F989808185FF15C09FB7F894EE8913
:10074000FF896083E889F989808183708064808370
:100750009FBF81E090E0DF91CF911F910F91FF90BB
:10076000EF900895F62E0B8D10E00F5F1F4F0F7363
:100770001127E02E8C8D8E110CC00FB607FCFACF1E
:10078000E889F989808185FFF5CFCE010E94690350
:10079000F1CFEB8DEC0FFD2FF11DE35AFF4FF082EF
:1007A0009FB7F8940B8FEA89FB8980818062CFCF55
:1007B000CF93DF93EC01888D8823B9F0AA89BB8998
:1007C000E889F9898C9185FD03C0808186FD0DC083
:1007D0000FB607FCF7CF8C9185FFF2CF808185FFA4
:1007E000EDCFCE010E946903E9CFDF91CF9108954B
:1007F0000F931F93CF93DF93EC018B01888599852D
:10080000029749F46130710509F436C04CF560E097
:100810000115110591F188859985049749F40130F6
:10082000110509F451C09CF50115110509F43BC0EF
:1008300088859985059709F0C5C00A30110508F02B
:10084000C1C0F801EA5DFB4F0C94F71E78048204E6
:100850009004A204BA04BC04C204CC04DA04E00488
:100860006230710591F060E003301105A1F68C85CE
:100870000E94E80160E005C061E08C850E94E8010B
:1008800061E08E850E94E801C6CF61E0F0CF0230C2
:10089000110501F10330110559F661E08C850E94C4
:1008A000E80160E01CC061E08C850E94E80160E026
:1008B0008E850E94E80161E088890E94E80160E07D
:1008C0008A890E94E801B4CF60E08C850E94E8012B
:1008D00061E0EECF60E08C850E94E80161E08E85EA
:1008E0000E94E80160E088890E94E80161E0E8CFA9
:1008F00060E08C850E94E80161E08E850E94E8013D
:1009000061E009C060E08C850E94E80161E08E85AD
:100910000E94E80160E088890E94E80160E00DC063
:1009200060E08C850E94E80161E08E850E94E8010C
:1009300060E088890E94E80161E08A890E94E801FC
:1009400061E011C060E08C850E94E80161E08E8565
:100950000E94E80160E088890E94E80161E08A89DC
:100960000E94E80160E08C89DF91CF911F910F9187
:100970000C94E80161E0E7CF61E08C850E94E8011A
:1009800060E0E5CF61E08C850E94E80160E08E8543
:100990000E94E80161E0DFCF61E08C850E94E80100
:1009A00060E08E850E94E80161E088890E94E8018C
:1009B00060E0D5CF61E08C850E94E80160E09DCFCA
:1009C00060E0F9CFDF91CF911F910F9108955F9271
:1009D0006F927F928F929F92AF92BF92CF92DF924F
:1009E000EF92FF920F931F93CF93DF935C01690106
:1009F000DA015C90232B19F4CC24CA94DC2C8A01F4
:100A00003A01660E771ED0E0C0E0F12CE12C87E0C1
:100A1000882E912CF50180819181D8016C910C2E4A
:100A200001C0660F0A94EAF765296F77DC01ED9142
:100A3000FC910190F081E02D0995BFEFEB1AFB0AC4
:100A4000F801608170E0C4018C1B9D0B02C075959C
:100A500067958A95E2F7562E2196C730D10558F151
:100A6000CE14DF0441F1D5018D919C91652D6F77F6
:100A7000DC01ED91FC910190F081E02D0995BFEF33
:100A8000EB1AFB0A551C5524551C2797E6CFEC148E
:100A9000FD0408F4BFCFDF91CF911F910F91FF901C
:100AA000EF90DF90CF90BF90AF909F908F907F900E
:100AB0006F905F9008950F5F1F4F6016710639F7B2
:100AC000209749F3EC14FD0430F7F5018081918102
:100AD00061E070E001C0660FCA95EAF761506521D8
:100AE000DC01ED91FC910190F081E02DDF91CF913F
:100AF0001F910F91FF90EF90DF90CF90BF90AF903C
:100B00009F908F907F906F905F9009941F93CF93E9
:100B1000DF9300D0CDB7DEB7182F7A836983809139
:100B20009C0590919D050097C9F0DC01ED91FC9129
:100B30000190F081E02D1031B8F461157044A0F4FB
:100B4000612F606E099522E030E0AE014F5F5F4F8C
:100B500062E070E08CE995E00E94E7040F900F904E
:100B6000DF91CF911F91089560EF099580919C05C9
:100B700090919D05DC01ED91FC910190F081E02DBB
:100B80006FE6099580919C0590919D05DC01ED91A2
:100B9000FC910190F081E02D612F099522E030E079
:100BA000AE014F5F5F4F62E070E08CE995E00E941C
:100BB000E70480919C0590919D05DC01ED91FC91ED
:100BC0000190F081E02D67EF0995C8CFEF92FF9279
:100BD0000F931F93CF93DF93C82F80919C05909123
:100BE0009D050097C9F17A018B01DC01ED91FC9123
:100BF0000190F081E02D60EF099580919C05909126
:100C00009D05DC01ED91FC910190F081E02D6C2FB0
:100C10000995E7010E0D1F1DC017D10759F030E0EF
:100C200020E0AE0161E070E08CE995E00E94E7040D
:100C30002196F2CF80919C0590919D05DC01ED916C
:100C4000FC910190F081E02D67EFDF91CF911F9132
:100C50000F91FF90EF900994DF91CF911F910F9129
:100C6000FF90EF900895CF93DF93009729F1EC0167
:100C7000C05CDF4F888199810097F1F0DC01ED9134
:100C8000FC910190F081E02D69EF099588819981AF
:100C9000DC01ED91FC910190F081E02D62E009957D
:100CA00088819981DC01ED91FC910190F081E02D2A
:100CB00065E0DF91CF910994DF91CF910895CF92B4
:100CC000DF92EF92FF920F931F93CF93DF930097E2
:100CD00009F463C0FC01E058FF4FE080EE2009F406
:100CE0005CC0EC01C05CDF4FA881B981109709F4AA
:100CF00054C0FC01EF57FF4FC080D180F601118135
:100D00000081ED91FC9111970190F081E02D60EF51
:100D1000CD01099588819981DC01ED91FC910190CB
:100D2000F081E02D69E7099588819981DC01ED91D9
:100D3000FC910190F081E02D602F099588819981C7
:100D4000DC01ED91FC910190F081E02D612F09957E
:100D5000F12C01E010E00F5F1F4FE016F10659F093
:100D600030E020E0A601400F511F61E070E0CE01AD
:100D70000E94E704F0CF88819981DC01ED91FC911C
:100D80000190F081E02D67EFDF91CF911F910F91DE
:100D9000FF90EF90DF90CF900994DF91CF911F915A
:100DA0000F91FF90EF90DF90CF90089585ED8093A5
:100DB000BC008091BC0084FDFCCF10929A04089581
:100DC0002091D803260F3327331F21323105ECF44D
:100DD00020919A04FC0190E080E0243069F082E0E8
:100DE0000895A091D8032191AC014A545C4FA40FFF
:100DF000B52FB11D2C930196861798F38091D803D7
:100E0000680F6093D80380E0089581E00895089505
:100E100008950895E091B5038091B403E81730F484
:100E2000F0E0EC56FC4F808190E008958FEF9FEF4B
:100E300008959091B5038091B4032FEF3FEF981779
:100E400048F4E92FF0E0EC56FC4F208130E09F5F42
:100E50009093B503C90108958091B4039091B503AF
:100E6000891B990B0895CF92DF92EF92FF920F9317
:100E70001F93CF93DF937C01CB018A0120919B04C8
:100E8000222389F0EB016B01C40ED51ECC15DD05C4
:100E900069F06991D701ED91FC910190F081E02D0D
:100EA000C7010995F3CF642F0E94E006C801DF91C6
:100EB000CF911F910F91FF90EF90DF90CF90089509
:100EC000CF93DF931F92CDB7DEB7698320919B0448
:100ED0002223F9F02091BE04203258F021E030E0C6
:100EE000FC013383228390E080E00F90DF91CF916B
:100EF000089580919C04E82FF0E0E356FB4F998120
:100F000090838F5F80939C048093BE0481E090E087
:100F1000ECCF61E0CE0101960E94E006F7CF90E0B1
:100F200080E00895DF92EF92FF920F931F93CF938B
:100F3000DF93EC01D62E7A01890188818C3008F08C
:100F400067C061E08D2D0E9416028881282F30E055
:100F5000F901EE0FFF1FE20FF31FE85DF94F9D2D22
:100F60009F736081607C692B608320E232E02E19E0
:100F70003F0937FF02C02D5F3F4F359527953595C7
:100F80002795298320E639E0201B310B37FF02C06B
:100F90002D5F3F4F35952795359527952A832CE072
:100FA000622F0E94C31E829FB001112430E020E016
:100FB000AB01420F531FFA01EE0FFF1FE40FF51FA5
:100FC000E85DF94F908196FD16C02F5F3F4F2C30A2
:100FD000310571F781110FC01092800082E080937B
:100FE00081001092850010928400B19A80916F0068
:100FF000826080936F00E8818E2F90E0FC01EE0FFD
:10100000FF1FE80FF91FE85DF94F8081806480833E
:101010008881DF91CF911F910F91FF90EF90DF902A
:101020000895CF938630B0F421E030E0082E02C05E
:10103000220F331F0A94E2F740914804509149046B
:10104000672B51F4209530952423352330934904A0
:1010500020934804CF910895242B352B30934904D5
:1010600020934804909192039111F4CFC82F0E94CD
:101070005202BC018C2FCF910C9486055F926F9227
:101080007F928F929F92AF92BF92CF92DF92EF9218
:10109000FF920F931F93CF93DF93833008F061C0CB
:1010A000D1E0D80FDD0FDD0FDD0F5D2ED53110F053
:1010B00044E1542EC62F082FD8508D2E912CC401F8
:1010C000880F991F9C01245A3A4F5901D12CC12CE9
:1010D00010E077247394D515C8F58EEF8D0F82310B
:1010E000F8F4F601E80DF91DE152FA4F90819230C3
:1010F000B8F48C2F872166246394811101C0612C80
:101100007601EE0CFF1C913089F4172937E9E30EC4
:10111000F11CF501EE0DFF1D862D90E0918380837B
:10112000770CDF5F8FEFC81AD80AD5CF882371F309
:10113000F701E956FF4FEA0DFB1D80819181019770
:1011400029F362E08D2F0E941602E0CF011119C031
:10115000F8948BB16C2F68276C7F612368276BB97B
:101160007894DF91CF911F910F91FF90EF90DF90D6
:10117000CF90BF90AF909F908F907F906F905F9037
:1011800008950130D1F4C123F89495B1812F8F7364
:10119000809589239C2F9F73892B85B988B1612FF6
:1011A000629566956695637060956823C295C6954D
:1011B000C695C370C62BC8B9D3CF1F70F89498B129
:1011C000812F880F880F80958923C123CC0FCC0FE6
:1011D000C82BF1CF8F929F92AF92BF92CF92DF92A6
:1011E000EF92FF920F931F93CF93DF93EB01843124
:1011F00008F098C0082F10E0F801E152FA4F9081F2
:10120000933009F49CC0943009F08CC08250823134
:1012100008F081C0F801E658FC4FC080D12C76015F
:10122000EE0CFF1C4B01603282E078070CF03EC0F0
:10123000F701EC0DFD1DE35BF94F8181A8E88A2ED3
:10124000912C881A910887FD9394880C991C880C1E
:10125000991C092C000CAA08BB08828128E532E001
:10126000281B310987FD3395220F331F220F331FAF
:10127000032E000C440B550B281939094A095B0948
:10128000DB01653B710514F0A4EBB0E0B7FF02C0D1
:10129000B0E0A0E00E94531E24EB30E040E050E0BC
:1012A0000E94291E820E931EA41EB51EF701EC0D8E
:1012B000FD1DE35BF94F20812C3068F5318188E812
:1012C00090E0831B910937FD9395880F991F880F34
:1012D000991F881699067CF0328188E592E0831B7D
:1012E000910937FD9395880F991F880F991F8816CC
:1012F00099060CF4C4010297880F991F4FB7F89410
:1013000030E0F901EE0FFF1FE20FF31FE85DF94F28
:10131000928381834FBF000F111FF801ED50FA4FE8
:10132000D183C083DF91CF911F910F91FF90EF90F8
:10133000DF90CF90BF90AF909F908F9008957B01EA
:10134000D82F833041F08BEF800F823020F087EF71
:10135000800F833058F461E08D2F0E941602E11453
:10136000F10461F460E08D2F0E94E801000F111F6D
:10137000F801ED50FA4FF182E082D4CF8FEFE816FA
:10138000F10411F461E0EFCFF801E155FF4FE49172
:10139000E33021F148F4E130B9F0E230D1F080E8F7
:1013A000E816F1047CF7DECFE73011F1E83041F1C7
:1013B000E430A9F780918000806280938000F092F1
:1013C0008B00E0928A00D2CF84B5806884BDE7BCF0
:1013D000CDCF84B5806284BDE8BCC8CF8091800049
:1013E000806880938000F0928900E0928800BECFF0
:1013F0008091B00080688093B000E092B300B6CFD7
:101400008091B00080628093B000E092B400AECFD3
:101410009EEF980F923180F4E82FF0E0DF01A152A7
:10142000BA4F9C91913041F4EE0FFF1FED50FA4FEF
:10143000608371830C94E8010895FF920F931F93CA
:10144000CF93DF9300D0CDB7DEB7082F10E0F801BF
:10145000EC5EFB4F9081F62EF92202571C4F411192
:1014600004C0F80190819F1511F12F2D30E03A83CF
:101470002983A0919C05B0919D051097B1F0682F2C
:101480006F706069ED91FC9111970190F081E02DF2
:10149000CD01099522E030E0AE014F5F5F4F62E081
:1014A00070E08CE995E00E94E704F801F0820F906B
:1014B0000F90DF91CF911F910F91FF90089583308E
:1014C00040F5282F30E0F901E95EFB4F6083672B80
:1014D00001F12C5E3B4FF9016081811106C099B189
:1014E0009C7F692341E00C941D0A813049F493B13B
:1014F00026B19F73F0E42F9F90011124922BF1CF1E
:1015000026B130E035952795359527952F706223C4
:10151000E9CF0895A82FB0E0A658BC4F9C91292F81
:1015200030E0F901EE0FFF1FE20FF31FE35BF94F0D
:10153000E0812E2F30E0F901EE0FFF1FE20FF31FC5
:10154000E85DF94F80818F7B8083809178039813C9
:1015500008C0992319F09150909378038FEF8C93E2
:1015600008958823D9F3E0917903EF5FE09379033D
:10157000F0E0E55EFC4F9083F1CFFC01019000208C
:10158000E9F73197BF01681B790BAC0181E70C9437
:10159000E605CF93DF93DB01909178039C3078F5DB
:1015A00030917903682F70E0FB01E658FC4F33233C
:1015B000E1F0C32FD0E0C55EDC4F888180833150DD
:1015C00030937903808123E0829FC0011124835BE3
:1015D000994F1A161B0674F4141615065CF49A013A
:1015E000AD01DF91CF910C94920790839F5F909310
:1015F0007803E8CF20E639E040E252E0F2CF8EE215
:1016000091E0DF91CF910C94BD0A9F92AF92BF926F
:10161000CF92DF92EF92FF920F931F93CF93DF93BE
:10162000C82ED12CE601C45ADA4FFE01ED57FF4F08
:1016300090819F3709F4A1C0963061F49091910395
:10164000992341F06630710529F0109291039FEFC4
:10165000909301017B01182F0EEF080F023108F55E
:1016600064307105F1F0F601E658FC4F80818C3052
:10167000C0F490E0FC01EE0FFF1FE80FF91FE35BE1
:10168000F94FE0818E2F90E0FC01EE0FFF1FE80F75
:10169000F91FE85DF94F808186FF03C0812F0E940A
:1016A0008A0A52EF952E910E85E0891558F061E077
:1016B00070E032E0E316F10411F070E060E0892D93
:1016C0000E9411080231C8F4E12FE695E695E695EF
:1016D000F0E0EC5EFB4F2081312F377081E090E02D
:1016E00001C0880F3A95EAF7E114F10421F03BE0DC
:1016F000E316F10411F5822B80835601AA0CBB1C62
:10170000F501ED50FA4F118210828EE0E816F104D7
:1017100008F0E5C0F701E157F44F0C94F71EB10B48
:10172000DE0BA00BF50B140C6F0C4B0C6F0C670C45
:101730006F0CBD0BC90B5F0C570C80958223DCCF5F
:1017400035E03915D0F0023120F460E0812F0E949D
:101750001602CD57DF4F88818F3779F082E088837A
:101760000CC0023150F460E0812F0E941602CD5768
:10177000DF4F88818F3709F01882DF91CF911F9159
:101780000F91FF90EF90DF90CF90BF90AF909F9020
:101790000895023190F762E0812F0E941602CD5722
:1017A000DF4F88818F3711F08BE08883F501ED5092
:1017B000FA4F81E090E091838083DFCF0231E8F639
:1017C000FE01ED57FF4F8081833021F460E0812FCF
:1017D0000E94E80161E0812F0E941602CD57DF4F81
:1017E00088818F3751F281E0BACF133049F08BEF07
:1017F000810F823028F087EF810F833008F0BDCF52
:1018000061E0812F0E94160261E0812F0E94160282
:1018100060E0812F0E94E801CD57DF4F88818F372C
:1018200009F4ABCF83E09BCF023108F0A6CFCD57B0
:10183000DF4F88818F3711F084E08883F601E65806
:10184000FC4F80818F3FA9F090E0FC01EE0FFF1F5D
:10185000E80FF91FE35BF94FE0818E2F90E0FC0168
:10186000EE0FFF1FE80FF91FE85DF94F808186FD3D
:1018700084CF4FEF5FEF6FEF7FEF812FDF91CF913D
:101880001F910F91FF90EF90DF90CF90BF90AF909E
:101890009F900C94C90A1251123008F06ECFCD57A8
:1018A000DF4F88818F3709F468CF86E058CFCD5756
:1018B000DF4F88818F3709F460CF8DE050CFCD574F
:1018C000DF4F88818F3709F458CF8CE048CFCD5750
:1018D000DF4F88818F3709F450CF88E040CF82E412
:1018E00091E0DF91CF911F910F91FF90EF90DF90EA
:1018F000CF90BF90AF909F900C94BD0A0F931F9311
:10190000CF93DF9381E080939203809191038823AA
:1019100029F0109291038FEF809301011092170428
:101920001092140410928E03109218041092150451
:1019300010928F03109219041092160410929003C3
:101940000AE713E0C0E0DFEF82EF8C0F62E070E0A7
:101950008630A0F18EEF8C0F61E070E0823170F57F
:101960008C2F0E94BF02F801D1938F01CF5FC43149
:1019700059F71092620410926104EAE4F4E0A3E5DE
:10198000B4E08FE781932D913D91232B21F0ED0160
:1019900022971982188294E0E035F90799F710929E
:1019A000490410924804109279031092780310921F
:1019B0009203DF91CF911F910F9108958C2F0E9478
:1019C000050BD1CFEF92FF920F931F93CF93DF932D
:1019D000D82F8B01C42FF22E6F3F760709F488C0F1
:1019E00081E080939B04D093BD0410929C041092DC
:1019F000BE048CE196E00E9460078F2D0E94EA00F1
:101A000080917603909177038230910538F0880FAA
:101A1000991F880F991F05970197F1F780919A04F4
:101A20008111FCCF9C2FC13208F090E281E08093BD
:101A30009A04809399042FEF2093980410929704AE
:101A4000290F2093960480937504209175048D2F9F
:101A5000880F822B8093750480917404813009F083
:101A600049C010927404809175048093BB008091EA
:101A7000BC0083FDF8CF85EC8093BC0080919A0474
:101A80008130E1F380919704891710F490919704C5
:101A9000A6E7B4E0E4E9F3E080E089132DC01092FA
:101AA000B5038093B403EC2EF12C90E0E816F90610
:101AB0003CF583E591E00E94BD0AD0932803009392
:101AC000290308E213E0C801885293408E159F0550
:101AD000ECF40F5F1F4F9091B4038091B5039817FA
:101AE000A9F08CE196E00E941907F8018183EBCF01
:101AF00000E094CF85EEC0CF2D9121938F5FCDCFA5
:101B00008E159F05D4F680E791E0D5CFCE5F6C2F80
:101B100070E048E253E087E7DF91CF911F910F918A
:101B2000FF90EF900C94E6052F923F924F925F92B8
:101B30006F927F928F929F92AF92BF92CF92DF92DD
:101B4000EF92FF920F931F93CF93DF93CDB7DEB742
:101B5000C454D1090FB6F894DEBF0FBECDBF162F07
:101B60007A018D3609F4F9C208F08CC08F3509F47A
:101B700046C300F5803509F41EC2813509F4E3C07F
:101B8000CC5BDF4F0FB6F894DEBF0FBECDBFDF9149
:101B9000CF911F910F91FF90EF90DF90CF90BF906A
:101BA000AF909F908F907F906F905F904F903F90FD
:101BB0002F900895893609F411C38B3609F467C252
:101BC0008236F1F6209161043091620426303105AD
:101BD0000CF0FDC4DA018C918093750311969C91F1
:101BE0001197909374031396CC90B0E8CB9EA0010C
:101BF0001124F701C280C40ED52ED11C0D2C000C6F
:101C0000EE08FF08265B3B4FD9018C936CE070E037
:101C10000E94050B6CE070E0809174030E94050B3C
:101C20008BE090E00E94041F8C012091740380914E
:101C30007503F8018083218391E0281390E0D80197
:101C400012969C9361E00E94160260E0F801818187
:101C50000E941602D8011796CD92DD92ED92FC9269
:101C60001A978091610490916204FC01EE0FFF1FAE
:101C7000ED5AFB4F11830083019690936204809389
:101C800061047ECF823709F4A5C408F048C08F36BE
:101C900009F4DAC1803709F073CF653008F470CFEA
:101CA000FA0110818EEF810F823108F069CF018136
:101CB000C280D380F480E12FF0E0E658FC4F8081B1
:101CC0008C30C0F490E0FC01EE0FFF1FE80FF91F0D
:101CD000E35BF94FE0818E2F90E0FC01EE0FFF1FD8
:101CE000E80FF91FE85DF94F808186FF03C0812F5F
:101CF0000E948A0AF0E8FF9EA00111244D0D511D9B
:101D000020E8C29EB0011124600F711D812F0E9436
:101D1000C90A64E070E0812F0E94050B31CF88373B
:101D200009F4EFC08A3709F46AC1863709F028CF71
:101D3000DA0111969C91119795FF0FC08CE891E004
:101D40000E94BD0A1DCF80EF0E94DD0082E50E9447
:101D5000DD0081E00E94DD00FCC1FA01808196FB7C
:101D6000332730F921E0232798719830A1F1E8F466
:101D7000911106CF91E090939B048093BD04109243
:101D80009C041092BE0402E00117E8F4F701E00F92
:101D9000F11D61816795662767958081680F8CE1E9
:101DA00096E00E9460070E5FEFCF903189F1983185
:101DB00009F0E6CE2091010112160CF45DC08FEF00
:101DC00080930101DDCE81E00E94EA0083E191E091
:101DD0000197F1F7D5CE12969C91129713964C91DC
:101DE000663079F4B0E84B9FB0011124690F711D82
:101DF00045814795442747959481490F0E94E20CFD
:101E0000BFCE479544274795490F6FEF7FEFF6CF39
:101E1000E0910101E7301CF08CEA91E091CF12963D
:101E20003C91129713969C916630F9F4B0E89B9F11
:101E3000A0011124430F511DD70115969C911597B0
:101E400097959927979514963C91930FEF5FE093A0
:101E50000101B5E0EB02F0011124E05EFB4F80834D
:101E600052834183938324838BCE979599279795AB
:101E7000930F4FEF5FEFEACF90E0622F022E000C3E
:101E8000770B35E0492F50E06417750764F0349FF5
:101E9000F001359FF00D1124E05EFB4F40814817A3
:101EA00019F09F5FEFCF90E085E0492F50E0641775
:101EB00075071CF19830F8F4FA0131968E9FD00125
:101EC0008F9FB00D1124A05EBB4F3C91849FF00109
:101ED000859FF00D1124E05EFB4F308311964D91EC
:101EE0005C9112975283418313963C9113973383ED
:101EF00014963C9134839F5FD8CF215020930101E9
:101F00003FCE623088F0FA018181F0E88F9F900126
:101F10001124DA018C91820F932F911D009721F0EB
:101F2000909377038093760380919103811128CE5B
:101F300010E08EEE810F823028F466E070E0812F91
:101F40000E94050B1F5F1431A1F781E0809391037C
:101F50001092B5031092B40310929C041092BE0428
:101F600010929A04809399041092740461E082E1C3
:101F70000E94E80161E083E10E94E8018091B900DC
:101F80008E7F8093B9008091B9008D7F8093B900D6
:101F900088E48093B80085E48093BC0087E097E0F4
:101FA0009093D7038093D60388E097E09093DB0368
:101FB0008093DA03E5CDDA0111968C91B0E88B9F1E
:101FC00090011124FA018081820F932F911D90932B
:101FD0001F0480931E042FB7F89480916C04909195
:101FE0006D04A0916E04B0916F042FBF80931A040A
:101FF00090931B04A0931C04B0931D04C1CD6230C8
:1020000008F4BECDDA0111968C91B0E88B9F900157
:102010001124FA018081820F932F911D009789F07E
:10202000909303018093020160910201709103017A
:1020300088E290E00E94CF1E709364046093630472
:102040009FCD81E090E0ECCF623008F499CDDA01C9
:1020500011966C91119770E01230A1F012968C914C
:10206000B0E88B9FC0011124682B792B133051F0FD
:10207000FA01838190E090E4899F902D88271124B4
:10208000682B792BD7018C910E94EA0879CD80EFDB
:102090000E94DD008CE60E94DD001EEF84EF810FC0
:1020A0008630B0F582E00E94DD008AE00E94DD000B
:1020B0008DEF810F823070F189EF810F833080F5D1
:1020C00029C0123158F780E00E94DD0081E00E94B3
:1020D000DD008BE00E94DD0081E00E94DD0081E0F8
:1020E0000E94DD0081E00E94DD0088E00E94DD00AA
:1020F00081E00E94DD008CE00E94DD0081E00E9412
:10210000DD008DE00E94DD0081E00E94DD00C6CF91
:10211000113071F683E00E94DD0088E00E94DD004E
:10212000123130F484E00E94DD008EE00E94DD0078
:1021300080EF810F823030F486E00E94DD0081E084
:102140000E94DD008FE70E94DD001F5F123109F061
:10215000B8CF87EF0E94DD0013CD662309F410CDC0
:10216000FA01008180EF0E94DD008EE60E94DD0012
:10217000802F0E94DD00043160F710E0F801E15289
:10218000FA4F80810E94DD00000F111F98012D5031
:102190003A4F7901D9018C918F770E94DD00F701C8
:1021A000808191819C012078232B39F0880F892F21
:1021B000881F990B8F770E94DD00F801ED50FA4FD0
:1021C000808191819C012227307C232B11F2990F71
:1021D000880B990F982F881F8F77BCCD80EF0E94B6
:1021E000DD008AE60E94DD0012EF8FE7163008F46A
:1021F000812F0E94DD001F5F1630B9F7AACFDA01E8
:102200009C9111968C9111979111DBC113968C9032
:10221000B0E88B9E40011124FA012281820E911CAC
:10222000A580F0E8AF9E90011124DA011496AC90DD
:10223000A20EB32EB11C909100019817C9F09F3FD8
:1022400009F09ECC80930001E8E6F0E014911F3F76
:1022500009F496CC113009F490C008F471C0123022
:1022600009F4ADC017FD8CCC61E00E9416020AC0D3
:10227000E8E6F0E0149117FD83CC61E00E941602BD
:10228000112319F0123009F033C12401092C000C7C
:102290006608770860E072E18AE790E0A3019201A6
:1022A0000E94291E25962CAF3DAF4EAF5FAF2597FC
:1022B00069017A01B1E0CB1AD108E108F108EFEF2A
:1022C000CE16D104E104F10409F00CF4EAC060E494
:1022D00072E48FE090E0A30192010E94291E69013F
:1022E0007A01F1E0CF1AD108E108F108123009F0C3
:1022F0008DC082E02FEFC216D104E104F104C9F0D1
:10230000C4F060E970ED83E090E0A30192010E94C7
:10231000291E69017A0161E0C61AD108E108F108B5
:102320008FEFC816D104E104F10411F00CF045C39D
:1023300083E09091B100987F892B8093B100B8C061
:1023400014BC15BC94B5926094BD95B5916095BDD3
:10235000282F30E0F901E957FF4FE491F0E0EE0F4C
:10236000FF1FED58FF4F45915491F901E556FF4F7E
:10237000E491E093690310E080CF10928000109206
:1023800081009091810098609093810090918100EC
:10239000916090938100282F30E0F901E957FF4FB9
:1023A000E491F0E0EE0FFF1FED58FF4F459154917F
:1023B000F901E556FF4FE491E09368035ECF109278
:1023C000B0001092B1009091B00092609093B00074
:1023D0009091B10091609093B100282F30E0F90105
:1023E000E957FF4FE491F0E0EE0FFF1FED58FF4F6C
:1023F000459154915093FE034093FD03F901E55636
:10240000FF4FE491E093FF0312E037CF9FEFC9162F
:10241000D104E104F10409F00CF468C068E478EE3A
:1024200081E090E0A30192010E94291E69017A01D6
:10243000A1E0CA1AD108E108F108112309F4D6C2B3
:10244000BFEFCB16D104E104F10411F00CF0D7C2B8
:10245000CBC264E274EF80E090E0A30192010E949D
:10246000291E69017A01B1E0CB1AD108E108F1080F
:1024700085E0EFEFCE16D104E104F10409F008F491
:1024800058CF62E17AE780E090E0A30192010E94D8
:10249000291E69017A0191E0C91AD108E108F10801
:1024A000C0C281E0111145CF95B5987F892B85BDBC
:1024B0002FEF3FEFA901A114B10409F053C011306F
:1024C00009F45DC0123009F46CC0111159CBC7BCBE
:1024D00020936E0330936F03409370035093710306
:1024E00080916E00826080936E004ACB82E0DACFEA
:1024F0002401092C000C6608770860E072E18AE785
:1025000090E0A30192010E94291E69017A0161E015
:10251000C61AD108E108F10891E0C114D10481E0A4
:10252000E806F10484F068E478EE81E090E0A3012D
:1025300092010E94291E69017A0191E0C91AD1080D
:10254000E108F10893E0113009F0B2CF80918100E9
:10255000887F892B809381002FEF3FEFA901A11481
:10256000B10469F09401220F331FD5010E94FD1EB2
:1025700028EE33E040E050E00E94921EA0CFD092BF
:102580008900C092880020936A0330936B034093C4
:102590006C0350936D0380916F00826080936F0095
:1025A000EFCAC092B300209300043093010440931B
:1025B0000204509303048091700082608093700045
:1025C000DFCA913009F0DCCA0E94BF02D9CA8DEB84
:1025D00091E0B6CBFA0180818111EAC0A280F0E8D7
:1025E000AF9EC0011124DA011196AC901197A80E8C
:1025F000B92EB11C13960C911397802E912C149622
:10260000CC90D12C6530A9F58AE190E00E94041F9E
:102610007C01FC011386128611821082168A178AA9
:10262000108E118EB782A68295868486D786C6863E
:1026300061E0802F0E94160261E0F70186850E940A
:102640001602D70151961C921E92509753961C92D7
:102650001E92529755961C921E92549782E090E0DB
:1026600019969C938E931897F0927303E0927203DD
:1026700087CA6730E9F5FA014580512C6680712CD4
:102680008AE190E00E94041F7C01DC011B961C92F1
:102690001E921A971D921C92FC01168A178A108EA0
:1026A000118EB782A68295868486D786C686518A81
:1026B000408A738A628A61E0802F0E94160261E07C
:1026C000D7011E968C910E94160261E0F701808965
:1026D0000E94160261E0D70152968C910E94160268
:1026E000F701158A148A84E090E091878087BCCF37
:1026F0008AEF91E00E94BD0A612F70E090E080E0D7
:102700002AE0AE014F5F5F4F7A010E94E81DF7019A
:1027100001900020E9F731978F010E191F09B801C8
:102720006F5F7F4F90E080E00E9429206C0100974E
:1027300041F0DC011C92B7010E94EF200115110548
:1027400041F519828AE292E00E94BD0AC7010E9407
:10275000BD0AC114D10409F413CAC601CC5BDF4F12
:102760000FB6F894DEBF0FBECDBFDF91CF911F91A2
:102770000F91FF90EF90DF90CF90BF90AF909F9020
:102780008F907F906F905F904F903F902F900C9420
:10279000A01F0F33110510F00FE310E0A801B601E0
:1027A000C7010E94F620F701E00FF11F1082CACF87
:1027B000813009F0CCC0C0907203D0907303C11473
:1027C000D10409F4C1C00581F0E80F9FC0011124B4
:1027D000DA0114960C911497080F192F111D1696F3
:1027E0007C90F60126813781032E000C440B550B9B
:1027F00060E077E883E993E00E94291ECA01B901ED
:10280000D70112968C901297912CB12CA12C37E005
:10281000880C991CAA1CBB1C3A95D1F713962C91D5
:10282000139730E050E040E0EEE0220F331F441FEA
:10283000551FEA95D1F7822A932AA42AB52A119620
:102840002C9114012501222AA20191010E94291E26
:10285000D60112962D933D934D935C93159771106D
:1028600003C0119501951109780117FF04C0EE24EA
:10287000FF24E01AF10A101611060CF04DC081E099
:1028800090E0F6019183808304E010E02AE0A22E1C
:10289000B12CE114F10409F473C90E946702F60136
:1028A00046885788608C718C9B01AC0124193509CE
:1028B0004609570942805380648075802415350588
:1028C0004605570530F3668B778B808F918F828515
:1028D0009385208131812130310529F50196938737
:1028E0008287268137818217930711F41386128617
:1028F000B1E0EB1AF108F6018285938520853185D8
:10290000B5012530310509F0B8010E94E31EBC0174
:10291000C6010E94F803BDCF012B09F4B5CFD60143
:102920001D921C92B1CF892B21F4868197819387C8
:102930008287D6011A968D919C911B9701971B96C1
:102940009C938E931A97D4CF82E392E0F9C9823098
:10295000A1F48091720390917303892B59F080EF59
:102960000E94DD0082E70E94DD0085E00E94DD001C
:1029700080E0F0C98EE592E0E3C983E992E0E0C926
:1029800084E04FEFC416D104E104F10409F008F427
:102990008BCD2596CCACDDACEEACFFAC25978AE0B8
:1029A000F594E794D794C7948A95D1F731E0C31A88
:1029B000D108E108F10885E077CD68E478EE81E0A0
:1029C00090E0A30192010E94291E69017A0161E051
:1029D000C61AD108E108F1088FEFC816D104E10446
:1029E000F10411F00CF035CD84E0A3CC83E0AFEF1F
:1029F000CA16D104E104F10409F00CF455CD62E1EA
:102A00007AE780E090E0A30192010E94291E69010B
:102A10007A01F1E0CF1AD108E108F108112309F495
:102A2000AFCF86E02FEFC216D104E104F10409F024
:102A300008F47FCC2596CCACDDACEEACFFAC259792
:102A40009AE0F594E794D794C7949A95D1F7F1E07A
:102A5000CF1AD108E108F10887E06BCC1F920F92E2
:102A60000FB60F9211242F933F938F939F93AF93A1
:102A7000BF9380916C0490916D04A0916E04B0910D
:102A80006F0430916B0423E0230F2D3758F5019626
:102A9000A11DB11D20936B0480936C0490936D0471
:102AA000A0936E04B0936F048091700490917104B0
:102AB000A0917204B09173040196A11DB11D809381
:102AC000700490937104A0937204B0937304BF9147
:102AD000AF919F918F913F912F910F900FBE0F90CB
:102AE0001F90189526E8230F0296A11DB11DD2CF85
:102AF0001F920F920FB60F9211242F933F934F9373
:102B00005F936F937F938F939F93AF93BF93EF9355
:102B1000FF938091000490910104A0910204B09170
:102B20000304892B8A2B8B2BD1F19091FF03E09129
:102B3000FD03F091FE03808189278083809100044A
:102B400090910104A0910204B09103041816190693
:102B50001A061B069CF48091000490910104A09138
:102B60000204B09103040197A109B1098093000404
:102B700090930104A0930204B0930304FF91EF919A
:102B8000BF91AF919F918F917F916F915F914F9185
:102B90003F912F910F900FBE0F901F90189580912D
:102BA00000010E94BF02EACF1F920F920FB60F9250
:102BB00011242F933F934F935F936F937F938F9342
:102BC0009F93AF93BF93EF93FF938FEB94E00E949B
:102BD0006903FF91EF91BF91AF919F918F917F9189
:102BE0006F915F914F913F912F910F900FBE0F907A
:102BF0001F9018951F920F920FB60F9211242F93CA
:102C00008F939F93EF93FF93E091CF04F091D004C3
:102C10008081E091D504F091D60482FD1BC09081A3
:102C20008091D8048F5F8F732091D904821741F06F
:102C3000E091D804F0E0E154FB4F958F8093D804E5
:102C4000FF91EF919F918F912F910F900FBE0F9059
:102C50001F9018958081F4CF1F920F920FB60F929C
:102C600011242F933F934F935F936F937F938F9391
:102C70009F93AF93BF93EF93FF938091B900887FA9
:102C8000803609F44AC0F0F5883209F4A7C018F577
:102C9000803109F49BC0B8F4882309F4F9C0883066
:102CA00009F494C0FF91EF91BF91AF919F918F91E3
:102CB0007F916F915F914F913F912F910F900FBE38
:102CC0000F901F901895883109F488C0803251F711
:102CD0008093980414C0803409F49DC040F480337C
:102CE000B9F38833F9F68093980485ECB0C0803549
:102CF00009F485C0883509F496C0883499F60E9495
:102D0000D606D0CF883909F48CC038F5883729F039
:102D100050F4883611F0803729F683E080939A04C6
:102D20001092FC0357C0883809F47BC0803919F031
:102D3000803809F0B7CF8091FC03803208F071C071
:102D4000E091FC0381E08E0F8093FC038091BB0037
:102D5000F0E0E452FC4F80833DC0803B39F0E0F46A
:102D6000803A09F479C0883A09F09CCF84E08093D6
:102D70009A041092D9031092D803E091D603F091EF
:102D8000D70309958091D80381110FC081E080930A
:102D9000D8031092B60309C0803C09F4A6CF883C42
:102DA00009F4A3CF883B09F07DCFE091D90381E0FE
:102DB0008E0F8093D903F0E0EA54FC4F808180931A
:102DC000BB009091D9038091D80329C080917504EC
:102DD0008093BB0085EC8093BC0064CF90919704F6
:102DE00080919604981758F5E091970481E08E0F32
:102DF00080939704F0E0EA58FB4F8081E9CFE0919F
:102E0000970481E08E0F809397048091BB00F0E0DF
:102E1000EA58FB4F8083909197048091960498170D
:102E2000C8F285E8D8CFE091970481E08E0F8093B7
:102E300097048091BB00F0E0EA58FB4F80838091BB
:102E4000990481115CCF81E08093740484EA8093BB
:102E5000BC0010929A0426CF85EC8093BC0010929F
:102E60009A048091FC03803230F4E091FC03F0E09E
:102E7000E452FC4F10826091FC0370E0E091DA03B1
:102E8000F091DB038CED93E009951092FC030ACFDF
:102E90001092980434CF1F920F920FB60F92112404
:102EA0002F933F934F935F936F937F938F939F9352
:102EB000AF93BF93CF93DF93EF93FF9380919303EF
:102EC000C0914C06D0E087FF24C01092850010927C
:102ED0008400809193038F5F809393038091930389
:102EE000082E000C990B8C179D0724F480919303F6
:102EF0008C30C4F1809184009091850004968034D8
:102F00009C4908F47AC080918400909185000496D1
:102F100076C080919303082E000C990B8C179D07A7
:102F2000C4F6E09193038E2FEE0F990BFC01EE0F88
:102F3000FF1FE80FF91FE85DF94F808186FFC9CFB9
:102F4000E09193038E2FEE0F990BFC01EE0FFF1F04
:102F5000E80FF91FE85DF94F808160E08F730E94F0
:102F6000E801B7CF2091840030918500E091930370
:102F70008E2FEE0F990BFC01EE0FFF1FE80FF91FCC
:102F8000E85DF94F81819281820F931F90938900B0
:102F900080938800E09193038E2FEE0F990BFC0134
:102FA000EE0FFF1FE80FF91FE85DF94F808186FFE4
:102FB00011C0E09193038E2FEE0F990BFC01EE0FE1
:102FC000FF1FE80FF91FE85DF94F808161E08F7303
:102FD0000E94E801FF91EF91DF91CF91BF91AF91F6
:102FE0009F918F917F916F915F914F913F912F9121
:102FF0000F900FBE0F901F90189580E49CE990935E
:103000008900809388008FEF80939303E3CF109221
:10301000C2041092C10448EE53E060E070E04093B7
:10302000C3045093C4046093C5047093C6048EE037
:1030300091E09093C0048093BF0485EC90E090935E
:10304000CC048093CB0484EC90E09093CE048093E6
:10305000CD0480EC90E09093D0048093CF0481EC79
:1030600090E09093D2048093D10482EC90E090930E
:10307000D4048093D30486EC90E09093D60480939C
:10308000D5041092D8041092D9041092DA04109248
:10309000DB048CE595E010929D0510929C059093C1
:1030A000A00580939F0520E430E03093A205209393
:1030B000A1051092A3051092A4051092A6051092E6
:1030C000A5051092A7051092A9051092A8051092C7
:1030D000AB051092AA051092AD051092AC051092A6
:1030E000AF051092AE051092B1051092B005109286
:1030F000B3051092B2051092B5051092B405109266
:10310000BB051092BA051092BD051092BC05109235
:10311000BF051092BE051092C1051092C005109215
:10312000CF051092CE0510929E051092DC051092EC
:10313000DE051092DD0521E020931B062DE830E02E
:103140003093C3052093C20527E930E03093C505CD
:103150002093C40521EA30E03093C7052093C605CB
:103160002BEA30E03093C9052093C80525EB30E009
:103170003093CB052093CA052FEB30E03093CD057B
:103180002093CC0529EC30E03093D1052093D00575
:103190002AEC30E03093D3052093D2052FE536E0BA
:1031A0003093D5052093D4059093B7058093B60549
:1031B00023E336E03093D7052093D6059093B905E5
:1031C0008093B80585ED90E09093D9058093D8055C
:1031D00010921F0610921E0640932006509321065F
:1031E000609322067093230680E291E090931D067F
:1031F00080931C06EDE4F6E02FEF48EB5BE0809156
:103200004C068C30B8F491E0980F90934C06808374
:1032100090E0DC01AA0FBB1FA80FB91FA85DB94F32
:1032200012965C934E931197339686E0E137F80738
:1032300031F708952083F8CF789484B5826084BDF7
:1032400084B5816084BD85B5826085BD85B58160AA
:1032500085BD80916E00816080936E001092810028
:1032600080918100826080938100809181008160E3
:1032700080938100809180008160809380008091A4
:10328000B10084608093B1008091B0008160809330
:10329000B00080917A00846080937A0080917A00F7
:1032A000826080937A0080917A00816080937A00B6
:1032B00080917A00806880937A001092C10084E146
:1032C0008093DC058091DD059091DE050E94A01FB2
:1032D000C091DC05D0E0CE0101960E94041F9093BE
:1032E000DE058093DD05FC01EC0FFD1F108212E06E
:1032F000DC011C9325E011962C93AE01425051093C
:1033000068E073E002960E94F6208AEE98E09093BF
:103310000F0480930E048EE398E090930D04809345
:103320000C0481E198E090930B0480930A048FE5EC
:103330009AE0909309048093080485E09BE09093C1
:1033400007048093060488E09AE090930504809334
:10335000040484E99DE090931104809310048EE7A7
:103360009CE09093130480931204E091CF04F091B9
:10337000D0041083E091CB04F091CC041082E09152
:10338000CD04F091CE0480E180831092D704E091C7
:10339000D304F091D40486E08083E091D104F091CD
:1033A000D204808180618083E091D104F091D204C5
:1033B000808188608083E091D104F091D204808183
:1033C00080688083E091D104F091D20480818F7D68
:1033D000808380911B0681114FC061E08DE00E94C7
:1033E000160262ED70E080E090E00E948C0261E0E5
:1033F0008DE00E94E80168E270E080E090E00E94C9
:103400008C0260E08DE00E94E80162ED70E080E0F7
:1034100090E00E948C0261E08DE00E94E80168E289
:1034200070E080E090E00E948C0260E08DE00E94FD
:10343000E8016AEF70E080E090E00E948C02C5E055
:1034400062ED70E080E090E00E948C0261E08DE02F
:103450000E94E80168E270E080E090E00E948C0247
:1034600060E08DE00E94E801C15051F76DE770E027
:1034700080E090E00E948C028FEB94E09093DB055B
:103480008093DA0590939D0580939C050E947E0CA5
:1034900023E0222E312C33E2432E512C48E3642EBC
:1034A000712C50E0C52E50E0D52E62E0A62EB12C36
:1034B00088248394912C80911704882349F069B162
:1034C0008091140468236C7F40E080E00E941D0A14
:1034D00080911804882379F063B186B16F73B0E4EA
:1034E0008B9FC0011124682B80911504682340E054
:1034F00081E00E941D0A80911904882359F066B169
:10350000809116048F7066956695682340E082E08E
:103510000E941D0A8091DA059091DB05DC01ED9196
:10352000FC910084F185E02D0995892B09F4CAC12D
:103530008091DA059091DB05DC01ED91FC9102842C
:10354000F385E02D09958F3F980721F3282F3091BF
:10355000A705332309F491C0873F09F07EC010927C
:10356000A705A0919F05B091A0056C916137C1F1AD
:10357000693709F05CC0E091D405F091D50530972A
:1035800049F28091A8059091A9058330910560F4D6
:1035900030E020E050E040E070E060E08091B6056F
:1035A0009091B7050995B6CFBD016D5F7F4F039729
:1035B0000E947701BC016D5F7F4F80E00E94470150
:1035C000E0919F05F091A0059F012D5F3F4F428143
:1035D00050E0618170E0E091D405F091D505DECF37
:1035E0008091D0059091D105892B09F493CFBD012D
:1035F0006F5F7F4F8091A8059091A90501970E9468
:103600007701BC016F5F7F4F80E00E9447016091AE
:103610009F057091A0056F5F7F4FE091D005F091FD
:10362000D1058091BC059091BD05099573CFE091BE
:10363000D205F091D305309709F46CCF9D012F5F2F
:103640003F4F4091A8055091A905415051098091E3
:10365000BE059091BF0509955DCF6091A805709159
:10366000A9050E9447018091A8059091A90501969E
:103670009093A9058093A8054DCF6091A505709101
:10368000A6056115710509F4AEC087FDACC0615097
:1036900071097093A6056093A5050E94470180916A
:1036A000A5059091A605892B09F034CF8091A3053B
:1036B000882309F42FCF803D09F481C040F480397C
:1036C00041F1803C09F467C01092A30523CF843FE9
:1036D000D1F1853F09F44BC0803EB1F7E091C205BE
:1036E000F091C305309781F3A0919F05B091A0059B
:1036F0004C9120E8429FA001112411968C91480F13
:10370000511D6091A4058091AA059091AB05099582
:10371000DBCFE091C405F091C5053097A9F2A091E7
:103720009F05B091A0054C9180E8489FA00111240D
:1037300011968C91480F511D6091A4058091AC05A4
:103740009091AD05E4CFE091CA05F091CB0530979B
:1037500009F4BACFA0919F05B091A0054C9150E01B
:1037600011966C918091B2059091B305D0CFE09104
:10377000CC05F091CD05309709F4A6CFA0919F0517
:10378000B091A0054C9150E011966C918091B405D8
:103790009091B505BCCFE091C605F091C705309773
:1037A00009F492CFA0919F05B091A0054C9150E0F3
:1037B0006091A4058091AE059091AF05A8CFE091EE
:1037C000C805F091C905309709F47ECFA0919F05F7
:1037D000B091A0054C9150E06091A4058091B00596
:1037E0009091B10594CF203F30F4982F9F70909323
:1037F000A405282F207F203FF1F190F4203CB1F167
:1038000050F4203909F086CEB092A605A092A50505
:103810002093A3057FCE203D49F1203EA9F37ACE27
:10382000293F09F443C028F48CE0820F823060F312
:1038300071CE2F3F09F06ECE1092A6051092A5050D
:103840001092A3051092A40590E080E02091A105BC
:103850003091A20582179307B0F4E0919F05F09193
:10386000A005E80FF91F10820196F0CF9092A605EF
:103870008092A505CDCFA1E0A093A7051092A90540
:103880001092A80547CE1092A7051092A905109294
:10389000A805E091D805F091D9058091C0059091D7
:1038A000C105309709F436CE099534CEE091D6059E
:1038B000F091D705309709F42DCE8091B8059091FD
:1038C000B905F2CF8FB7F89400916C0410916D0494
:1038D00020916E0430916F048FBF40916704509126
:1038E00068046091690470916A048091020190916A
:1038F0000301B0E0A0E0041B150B260B370B80176B
:103900009107A207B30708F057C1840F951FA61FA0
:10391000B71F8093670490936804A0936904B093E1
:103920006A0480916504909166049C012F5F3F4F6B
:1039300030936604209365042091630430916404FD
:10394000281739070CF0B2C0109266041092650473
:10395000E0906104F0906204E114F10409F4A6C05F
:1039600000915F0410916004F801EE0FFF1FED5A03
:10397000FB4FC081D1818A81882321F061E0888159
:103980000E94160260E088810E94E801C10101974F
:10399000F1F761E088810E94E801C2010197F1F727
:1039A00060E088810E94E8018A81882321F060E03C
:1039B00088810E9416020E9467026B837C838D833C
:1039C0009E8389810E94BF01892B99F40E9467021E
:1039D0002B813C814D815E81621B730B840B950BA7
:1039E0002F81388549855A85261737074807590793
:1039F00040F70E9467026B837C838D839E8389815D
:103A00000E94BF01892B99F00E9467022B813C81A3
:103A10004D815E81621B730B840B950B2F81388562
:103A200049855A85261737074807590740F70E94E6
:103A300067022B813C814D815E8100935204B1E08D
:103A4000EB1AF1080E151F050CF072C00F5F1F4F27
:103A50001093600400935F04CB01821B930BB301AE
:103A60000E94CF1E862F8F7780935104660F672F99
:103A7000661F770B71956093500480EF0E94DD0004
:103A800083E60E94DD00E0915204F0E0E65BFB4F2C
:103A900080810E94DD00809151040E94DD008091B0
:103AA00050040E94DD0087EF0E94DD00CCE5D5E0E8
:103AB00012EF1630C8F4FE01ED57FF4F80818230BF
:103AC00099F48091480490914904012E02C0959583
:103AD00087950A94E2F780FF07C0812F0E94520267
:103AE000BC01812F0E9486051F5F2196163009F7C1
:103AF0008091010187FD21C0C0E02C2F30E0809132
:103B00000101082E000C990B82179307B4F085E091
:103B1000829FF001839FF00D1124E05EFB4F6181D5
:103B200072812481438180810E94E20CCF5FE5CFC6
:103B30001092600410925F048FCF80911E049091C8
:103B40001F04892B09F438C08FB7F89440916C0496
:103B500050916D0460916E0470916F048FBF8091DD
:103B60001A0490911B04A0911C04B0911D04481BE1
:103B7000590B6A0B7B0B20911E0430911F04A8EE99
:103B8000B3E02A9FC0012B9F900D3A9F900D112406
:103B9000B0E0A0E084179507A607B70768F40E9475
:103BA0007E0C88E198E00FB6F894A89580936000A9
:103BB0000FBE90936000FFCFC114D10409F47BCCF9
:103BC0000E945503882309F476CC0E94000073CC30
:103BD000BB272A3051F4992342F4BDE29095809599
:103BE000709561957F4F8F4F9F4F0C94F81DBB27A9
:103BF000FA01A62F6217710581059105330B30FB81
:103C000066F0AA27660F771F881F991FAA1FA217A1
:103C100010F0A21B63953850A9F7A05DAA3308F0F5
:103C2000A95DA19336F7B111B1931082CA010C942A
:103C3000191EDC01FC01672F71917723E1F73297A0
:103C400004C07C916D9370836291AE17BF07C8F377
:103C50000895052E97FB1EF400940E94401E57FD08
:103C600007D00E94921E07FC03D04EF40C94401E15
:103C700050954095309521953F4F4F4F5F4F089598
:103C800090958095709561957F4F8F4F9F4F0895C8
:103C90000E94B41EA59F900DB49F900DA49F800D0F
:103CA000911D11240895B7FF0C94481E0E94481ED0
:103CB000821B930B08952F923F924F925F926F92C7
:103CC0007F928F929F92AF92BF92CF92DF92EF92AC
:103CD000FF920F931F93CF93DF93CDB7DEB7CA1B2D
:103CE000DB0B0FB6F894DEBF0FBECDBF09942A8858
:103CF000398848885F846E847D848C849B84AA8400
:103D0000B984C884DF80EE80FD800C811B81AA818C
:103D1000B981CE0FD11D0FB6F894DEBF0FBECDBF57
:103D2000ED010895A1E21A2EAA1BBB1BFD010DC0D7
:103D3000AA1FBB1FEE1FFF1FA217B307E407F5075B
:103D400020F0A21BB30BE40BF50B661F771F881F37
:103D5000991F1A9469F760957095809590959B01CD
:103D6000AC01BD01CF010895A29FB001B39FC00176
:103D7000A39F700D811D1124911DB29F700D811D97
:103D80001124911D0895991B79E004C0991F96177D
:103D900008F0961B881F7A95C9F780950895AA1B8D
:103DA000BB1B51E107C0AA1FBB1FA617B70710F026
:103DB000A61BB70B881F991F5A95A9F78095909558
:103DC000BC01CD01089597FB072E16F4009407D08F
:103DD00077FD09D00E94CF1E07FC05D03EF49095D8
:103DE00081959F4F0895709561957F4F0895EE0FCF
:103DF000FF1F0590F491E02D09940E94B41EB7FFB7
:103E00000895821B930B08950F931F93CF93DF9315
:103E10008230910510F482E090E0E0917306F09119
:103E2000740630E020E0B0E0A0E0309799F421156E
:103E3000310509F44AC0281B390B24303105D8F567
:103E40008A819B816115710589F1FB0193838283CE
:103E5000FE0111C040815181028113814817590729
:103E6000E0F04817590799F4109761F012960C93F7
:103E7000129713961C933296CF01DF91CF911F9129
:103E80000F9108950093730610937406F4CF2115D3
:103E9000310551F04217530738F0A901DB019A01AF
:103EA000BD01DF01F801C1CFEF01F9CF9093740696
:103EB00080937306CDCFFE01E20FF31F81939193A0
:103EC0002250310939832883D7CF20917106309150
:103ED0007206232B41F420910601309107013093A3
:103EE000720620937106209104013091050121157D
:103EF000310541F42DB73EB74091080150910901B9
:103F0000241B350BE0917106F0917206E217F3075E
:103F1000A0F42E1B3F0B2817390778F0AC014E5F39
:103F20005F4F2417350748F04E0F5F1F50937206FE
:103F300040937106819391939FCFF0E0E0E09CCF96
:103F4000CF93DF930097E9F0FC013297138212823E
:103F5000A0917306B0917406ED0130E020E0109757
:103F6000A1F420813181820F931F2091710630913D
:103F700072062817390709F061C0F0937206E093C2
:103F80007106DF91CF910895EA01CE17DF07E8F5BA
:103F90004A815B819E0141155105B1F7E901FB831F
:103FA000EA8349915991C40FD51FEC17FD0761F4BD
:103FB000808191810296840F951FE90199838883FE
:103FC000828193819B838A83F0E0E0E012968D9159
:103FD0009C9113970097B9F52D913C911197CD01C4
:103FE0000296820F931F2091710630917206281756
:103FF000390739F6309751F510927406109273060E
:10400000B0937206A0937106BCCFD383C283408164
:104010005181840F951FC817D90761F44E5F5F4F18
:1040200088819981480F591F518340838A819B81E0
:10403000938382832115310509F0B0CFF093740684
:10404000E09373069ECFFD01DC01C0CF1382128284
:10405000D7CFB0E0A0E0EFE2F0E20C945D1E8C015F
:10406000009751F4CB010E94041F8C01C801CDB709
:10407000DEB7E0E10C94791EFC01E60FF71F9C010E
:1040800022503109E217F30708F49DC0D901CD9100
:10409000DC911197C617D70798F0C530D10530F3DA
:1040A000CE0104978617970708F3C61BD70B2297F4
:1040B000C193D1936D937C93CF010E94A01FD6CF63
:1040C0005B01AC1ABD0A4C018C0E9D1EA0917306BB
:1040D000B0917406512C412CF12CE12C109731F544
:1040E00080917106909172068815990509F05CC05F
:1040F0004616570608F058C08091040190910501BA
:10410000009741F48DB79EB7409108015091090185
:10411000841B950BE817F90708F055C0F093720659
:10412000E0937106F90171836083A0CF8D919C911A
:10413000119712966C90129713967C901397A8156E
:10414000B90559F56C0142E0C40ED11CCA14DB0458
:1041500020F1AC014A195B09DA011296159780F03B
:104160006282738251834083D9016D937C93E11401
:10417000F10471F0D7011396FC93EE93129776CF6A
:1041800022968C0F9D1FF90191838083F301EFCF5D
:10419000F0937406E093730669CF4816590608F445
:1041A0002C017D01D3019ACFCB010E94041F7C0119
:1041B000009749F0AE01B8010E94E620C8010E94B4
:1041C000A01F870153CF10E000E050CFFB01DC01BE
:1041D00002C001900D9241505040D8F70895FB0164
:1041E000DC0101900D920020E1F70895FB01DC0154
:1041F0004150504048F001900D920020C9F701C095
:0E4200001D9241505040E0F70895F894FFCF12
:10420E00FFFF1300000075068000000000008B0306
:10421E00EB021803D803490327033B0300000000F9
:10422E00600733078F0709072C0719070A074D6127
:10423E007820736572766F7320617474616368653C
:10424E006400556E6B6E6F776E2070696E206D6FA9
:10425E006465004932433A20546F6F206D616E7968
:10426E002062797465732072656365697665640092
:10427E004932433A20546F6F206665772062797415
:10428E0065732072656365697665640031302D62F1
:10429E0069742061646472657373696E67206E6FF2
:1042AE007420737570706F7274656400746F6F2014
:1042BE006D616E7920717565726965730050494E36
:1042CE00475F434F4E464947204572726F723A2000
:1042DE004578636565646564206E756D62657220F0
:1042EE006F6620737570706F727465642070696E7E
:1042FE006720646576696365730053544550504575
:10430E005220434F4E464947204572726F723A20F3
:10431E0057726F6E67204E756D626572206F6620E4
:10432E00617267756D656E74730061726763203DAF
:10433E00200053544550504552204F504552415441
:10434E0045204572726F723A204D4F544F52204E97
:10435E004F5420434F4E46494755524544005354FF
:10436E004550504552204649524D574152452056D0
:10437E00455253494F4E204572726F723A204E4F3E
:10438E00204D4F544F525320434F4E46494755529E
:10439E004544005354455050455220434F4E4649D4
:1043AE0047204572726F723A20554E4B4E4F574E04
:1043BE00205354455050455220434F4D4D414E448D
:1043CE00002F686F6D652F746561636865722F418C
:1043DE00726475696E6F2F6C696272617269657352
:1043EE002F4669726D617461457870726573732FB3
:1043FE006578616D706C65732F4669726D6174615D
:10440E00457870726573732F4669726D617461457C
:0C441E007870726573732E696E6F000079
:00000001FF
